{
  "contractName": "GuyFactory",
  "abi": [
    {
      "constant": true,
      "inputs": [
        {
          "name": "",
          "type": "uint256"
        }
      ],
      "name": "guys",
      "outputs": [
        {
          "name": "name",
          "type": "string"
        },
        {
          "name": "dna",
          "type": "uint256"
        },
        {
          "name": "level",
          "type": "uint32"
        },
        {
          "name": "readyTime",
          "type": "uint32"
        },
        {
          "name": "wins",
          "type": "uint32"
        },
        {
          "name": "losses",
          "type": "uint32"
        }
      ],
      "payable": false,
      "stateMutability": "view",
      "type": "function"
    },
    {
      "constant": true,
      "inputs": [],
      "name": "owner",
      "outputs": [
        {
          "name": "",
          "type": "address"
        }
      ],
      "payable": false,
      "stateMutability": "view",
      "type": "function"
    },
    {
      "constant": true,
      "inputs": [
        {
          "name": "",
          "type": "uint256"
        }
      ],
      "name": "guyToOwner",
      "outputs": [
        {
          "name": "",
          "type": "address"
        }
      ],
      "payable": false,
      "stateMutability": "view",
      "type": "function"
    },
    {
      "constant": false,
      "inputs": [
        {
          "name": "newOwner",
          "type": "address"
        }
      ],
      "name": "transferOwnership",
      "outputs": [],
      "payable": false,
      "stateMutability": "nonpayable",
      "type": "function"
    },
    {
      "anonymous": false,
      "inputs": [
        {
          "indexed": false,
          "name": "guyId",
          "type": "uint256"
        },
        {
          "indexed": false,
          "name": "name",
          "type": "string"
        },
        {
          "indexed": false,
          "name": "dna",
          "type": "uint256"
        }
      ],
      "name": "NewGuy",
      "type": "event"
    },
    {
      "anonymous": false,
      "inputs": [
        {
          "indexed": true,
          "name": "previousOwner",
          "type": "address"
        },
        {
          "indexed": true,
          "name": "newOwner",
          "type": "address"
        }
      ],
      "name": "OwnershipTransferred",
      "type": "event"
    },
    {
      "constant": true,
      "inputs": [],
      "name": "totalSupply",
      "outputs": [
        {
          "name": "",
          "type": "uint256"
        }
      ],
      "payable": false,
      "stateMutability": "view",
      "type": "function"
    },
    {
      "constant": true,
      "inputs": [
        {
          "name": "_owner",
          "type": "address"
        }
      ],
      "name": "balanceOf",
      "outputs": [
        {
          "name": "count",
          "type": "uint256"
        }
      ],
      "payable": false,
      "stateMutability": "view",
      "type": "function"
    },
    {
      "constant": true,
      "inputs": [
        {
          "name": "_owner",
          "type": "address"
        }
      ],
      "name": "guysFor",
      "outputs": [
        {
          "name": "ids",
          "type": "uint256[]"
        }
      ],
      "payable": false,
      "stateMutability": "view",
      "type": "function"
    },
    {
      "constant": true,
      "inputs": [
        {
          "name": "_id",
          "type": "uint256"
        }
      ],
      "name": "getGuy",
      "outputs": [
        {
          "name": "name",
          "type": "string"
        },
        {
          "name": "dna",
          "type": "uint256"
        }
      ],
      "payable": false,
      "stateMutability": "view",
      "type": "function"
    },
    {
      "constant": false,
      "inputs": [],
      "name": "getGuyCount",
      "outputs": [
        {
          "name": "count",
          "type": "uint256"
        }
      ],
      "payable": false,
      "stateMutability": "nonpayable",
      "type": "function"
    },
    {
      "constant": false,
      "inputs": [
        {
          "name": "_name",
          "type": "string"
        }
      ],
      "name": "createRandomGuy",
      "outputs": [],
      "payable": false,
      "stateMutability": "nonpayable",
      "type": "function"
    }
  ],
  "bytecode": "0x60806040526010600155662386f26fc10000600255610e1060035560008054600160a060020a03191633179055610b6d8061003b6000396000f3006080604052600436106100a35763ffffffff7c010000000000000000000000000000000000000000000000000000000060003504166301e31dda81146100a857806318160ddd14610126578063428da5c31461014d5780635364ed671461020f57806370a08231146102a6578063758829b0146102d45780638cc63bbe1461032f5780638da5cb5b14610344578063e5c2c2b614610382578063f2fde38b1461039a575b600080fd5b3480156100b457600080fd5b506100d673ffffffffffffffffffffffffffffffffffffffff600435166103c8565b60408051602080825283518183015283519192839290830191858101910280838360005b838110156101125781810151838201526020016100fa565b505050509050019250505060405180910390f35b34801561013257600080fd5b5061013b6104a7565b60408051918252519081900360200190f35b34801561015957600080fd5b506101656004356104b2565b60408051602080820188905263ffffffff808816938301939093528583166060830152848316608083015291831660a082015260c080825288519082015287519091829160e08301918a019080838360005b838110156101cf5781810151838201526020016101b7565b50505050905090810190601f1680156101fc5780820380516001836020036101000a031916815260200191505b5097505050505050505060405180910390f35b34801561021b57600080fd5b506102276004356105a3565b6040518080602001838152602001828103825284818151815260200191508051906020019080838360005b8381101561026a578181015183820152602001610252565b50505050905090810190601f1680156102975780820380516001836020036101000a031916815260200191505b50935050505060405180910390f35b3480156102b257600080fd5b5061013b73ffffffffffffffffffffffffffffffffffffffff6004351661068d565b3480156102e057600080fd5b506040805160206004803580820135601f810184900484028501840190955284845261032d9436949293602493928401919081908401838280828437509497506106b59650505050505050565b005b34801561033b57600080fd5b5061013b6106f1565b34801561035057600080fd5b506103596106f7565b6040805173ffffffffffffffffffffffffffffffffffffffff9092168252519081900360200190f35b34801561038e57600080fd5b50610359600435610713565b3480156103a657600080fd5b5061032d73ffffffffffffffffffffffffffffffffffffffff6004351661073b565b60606000606060008060006103dc8761068d565b94508415156103fb57604080516000815260208101909152955061049d565b84604051908082528060200260200182016040528015610425578160200160208202803883390190505b5093506104306104a7565b925060009150600190505b8281116104995760008181526005602052604090205473ffffffffffffffffffffffffffffffffffffffff888116911614156104915780848381518110151561048057fe5b602090810290910101526001909101905b60010161043b565b8395505b5050505050919050565b600454600019015b90565b60048054829081106104c057fe5b60009182526020918290206003919091020180546040805160026001841615610100026000190190931692909204601f8101859004850283018501909152808252919350918391908301828280156105595780601f1061052e57610100808354040283529160200191610559565b820191906000526020600020905b81548152906001019060200180831161053c57829003601f168201915b505050600184015460029094015492939263ffffffff80821693506401000000008204811692506801000000000000000082048116916c0100000000000000000000000090041686565b606060006004838154811015156105b657fe5b90600052602060002090600302016000016004848154811015156105d657fe5b906000526020600020906003020160010154818054600181600116156101000203166002900480601f01602080910402602001604051908101604052809291908181526020018280546001816001161561010002031660029004801561067d5780601f106106525761010080835404028352916020019161067d565b820191906000526020600020905b81548152906001019060200180831161066057829003601f168201915b5050505050915091509150915091565b73ffffffffffffffffffffffffffffffffffffffff1660009081526006602052604090205490565b33600090815260066020526040812054600210156106d257600080fd5b6106db82610803565b90506064810690036106ed828261087e565b5050565b60045490565b60005473ffffffffffffffffffffffffffffffffffffffff1681565b60056020526000908152604090205473ffffffffffffffffffffffffffffffffffffffff1681565b60005473ffffffffffffffffffffffffffffffffffffffff16331461075f57600080fd5b73ffffffffffffffffffffffffffffffffffffffff8116151561078157600080fd5b6000805460405173ffffffffffffffffffffffffffffffffffffffff808516939216917f8be0079c531659141344cd1fd0a4f28419497f9722a3daafe3b4186f6b6457e091a36000805473ffffffffffffffffffffffffffffffffffffffff191673ffffffffffffffffffffffffffffffffffffffff92909216919091179055565b600080826040518082805190602001908083835b602083106108365780518252601f199092019160209182019101610817565b6001836020036101000a03801982511681845116808217855250505050505090500191505060405180910390206001900490506002548181151561087657fe5b069392505050565b6040805160c0810182528381526020808201849052600192820183905260038054420163ffffffff16606084015260006080840181905260a08401819052600480548087018083559183528551805193979692959294919091027f8a35acfbc15ff81a39ae7d344fd709f28e8600b4aa8c65c6b64bfe7fe36bd19b01926109089284920190610aa9565b50602082810151600183810191909155604080850151600290940180546060808801516080808a015160a0909a015163ffffffff1990941663ffffffff998a161767ffffffff000000001916640100000000928a1692909202919091176bffffffff000000000000000019166801000000000000000099891699909902989098176fffffffff00000000000000000000000019166c0100000000000000000000000097909216969096021790559590940360008181526005835286812080543373ffffffffffffffffffffffffffffffffffffffff1990911681179091558152600683528681208054909601909555855181815295860188905285820183815289519387019390935288519096507f428ca73148cce5d083021c64b4e5bbdb2885b9bb5a8688cbcc3a73d69712e6e19587958a958a9592949293908501928701918190849084905b83811015610a68578181015183820152602001610a50565b50505050905090810190601f168015610a955780820380516001836020036101000a031916815260200191505b5094505050505060405180910390a1505050565b828054600181600116156101000203166002900490600052602060002090601f016020900481019282601f10610aea57805160ff1916838001178555610b17565b82800160010185558215610b17579182015b82811115610b17578251825591602001919060010190610afc565b50610b23929150610b27565b5090565b6104af91905b80821115610b235760008155600101610b2d5600a165627a7a7230582026e6c4b0a15143508a6ffac4962522de2040a138ce0e09644fd20a6b8ab52f3d0029",
  "source": "pragma solidity ^0.4.4;\r\n\r\nimport \"openzeppelin-solidity/contracts/ownership/Ownable.sol\";\r\nimport \"openzeppelin-solidity/contracts/Math/SafeMath.sol\";\r\n\r\ncontract GuyFactory is Ownable{\r\n\r\n    using SafeMath for uint256;\r\n    \r\n    event NewGuy(uint guyId, string name, uint dna);\r\n    \r\n    uint dnaDigits = 16;\r\n    uint dnaModulus = 10 ** dnaDigits;\r\n    uint coolDownTime = 60 minutes;\r\n    \r\n    struct Guy {\r\n        string name;\r\n        uint dna;\r\n        uint32 level;\r\n        uint32 readyTime;\r\n        uint32 wins;\r\n        uint32 losses;\r\n    }\r\n    \r\n    Guy[] public guys;\r\n    \r\n    mapping (uint => address) public guyToOwner;\r\n    mapping (address => uint) ownerGuyCount;\r\n    \r\n    //@dev function for creating a new \"guy\"\r\n    function createGuy(string _name, uint _dna) internal{\r\n        uint id = guys.push(Guy(_name, _dna, 1, uint32(now + coolDownTime), 0, 0)) - 1;\r\n        guyToOwner[id] = msg.sender;\r\n        ownerGuyCount[msg.sender]++;\r\n        NewGuy(id, _name, _dna);\r\n    }\r\n\r\n    function totalSupply() public view returns (uint) {\r\n        return guys.length - 1;\r\n    }\r\n\r\n    function balanceOf(address _owner) public view returns (uint256 count) {\r\n        return ownerGuyCount[_owner];\r\n    }\r\n\r\n    function guysFor(address _owner) external view returns (uint[] ids) {\r\n        uint256 guyCount = balanceOf(_owner);\r\n\r\n        if (guyCount == 0) {\r\n            // Return an empty array\r\n            return new uint256[](0);\r\n        }\r\n\r\n        uint256[] memory result = new uint256[](guyCount);\r\n        uint256 totalGuys = totalSupply();\r\n        uint256 resultIndex = 0;\r\n        uint256 guyId;\r\n        for (guyId = 1; guyId <= totalGuys; guyId++) {\r\n            if (guyToOwner[guyId] == _owner) {\r\n                result[resultIndex] = guyId;\r\n                resultIndex++;\r\n            }\r\n        }\r\n\r\n        return result;\r\n    }\r\n\r\n    function getGuy(uint _id) public view returns (string name, uint dna) {\r\n        return (guys[_id].name, guys[_id].dna);\r\n    }\r\n\r\n    function getGuyCount() public returns(uint count) {\r\n        return guys.length;\r\n    }\r\n\r\n    function generateRandomDna(string _str) private view returns (uint) {\r\n        uint rand = uint(keccak256(_str));\r\n        return rand % dnaModulus;\r\n    }\r\n\r\n    function createRandomGuy(string _name) public {\r\n        require(ownerGuyCount[msg.sender] <= 2);\r\n        uint randDna = generateRandomDna(_name);\r\n        randDna = randDna - randDna % 100;\r\n        createGuy(_name, randDna);\r\n    }\r\n \r\n}\r\n  ",
  "sourcePath": "/Users/Zac/Documents/Code/GitHub/Web/cryptoguys/contracts/GuyFactory.sol",
  "compiler": {
    "name": "solc",
    "version": "0.4.24+commit.e67f0147.Emscripten.clang"
  },
  "schemaVersion": "2.0.0",
  "updatedAt": "2018-05-24T06:30:38.566Z"
}