{
  "contractName": "GuyFactory",
  "abi": [
    {
      "constant": true,
      "inputs": [
        {
          "name": "",
          "type": "uint256"
        }
      ],
      "name": "guys",
      "outputs": [
        {
          "name": "name",
          "type": "string"
        },
        {
          "name": "dna",
          "type": "uint256"
        },
        {
          "name": "level",
          "type": "uint32"
        },
        {
          "name": "wins",
          "type": "uint32"
        },
        {
          "name": "losses",
          "type": "uint32"
        }
      ],
      "payable": false,
      "stateMutability": "view",
      "type": "function"
    },
    {
      "constant": true,
      "inputs": [],
      "name": "owner",
      "outputs": [
        {
          "name": "",
          "type": "address"
        }
      ],
      "payable": false,
      "stateMutability": "view",
      "type": "function"
    },
    {
      "constant": true,
      "inputs": [
        {
          "name": "",
          "type": "uint256"
        }
      ],
      "name": "guyIndexToOwner",
      "outputs": [
        {
          "name": "",
          "type": "address"
        }
      ],
      "payable": false,
      "stateMutability": "view",
      "type": "function"
    },
    {
      "constant": false,
      "inputs": [
        {
          "name": "newOwner",
          "type": "address"
        }
      ],
      "name": "transferOwnership",
      "outputs": [],
      "payable": false,
      "stateMutability": "nonpayable",
      "type": "function"
    },
    {
      "anonymous": false,
      "inputs": [
        {
          "indexed": false,
          "name": "guyId",
          "type": "uint256"
        },
        {
          "indexed": false,
          "name": "name",
          "type": "string"
        },
        {
          "indexed": false,
          "name": "dna",
          "type": "uint256"
        }
      ],
      "name": "NewGuy",
      "type": "event"
    },
    {
      "anonymous": false,
      "inputs": [
        {
          "indexed": true,
          "name": "previousOwner",
          "type": "address"
        },
        {
          "indexed": true,
          "name": "newOwner",
          "type": "address"
        }
      ],
      "name": "OwnershipTransferred",
      "type": "event"
    },
    {
      "constant": true,
      "inputs": [],
      "name": "totalSupply",
      "outputs": [
        {
          "name": "",
          "type": "uint256"
        }
      ],
      "payable": false,
      "stateMutability": "view",
      "type": "function"
    },
    {
      "constant": true,
      "inputs": [
        {
          "name": "_owner",
          "type": "address"
        }
      ],
      "name": "balanceOf",
      "outputs": [
        {
          "name": "",
          "type": "uint256"
        }
      ],
      "payable": false,
      "stateMutability": "view",
      "type": "function"
    },
    {
      "constant": true,
      "inputs": [
        {
          "name": "_owner",
          "type": "address"
        }
      ],
      "name": "guysFor",
      "outputs": [
        {
          "name": "ids",
          "type": "uint256[]"
        }
      ],
      "payable": false,
      "stateMutability": "view",
      "type": "function"
    },
    {
      "constant": true,
      "inputs": [
        {
          "name": "_id",
          "type": "uint256"
        }
      ],
      "name": "getGuy",
      "outputs": [
        {
          "name": "name",
          "type": "string"
        },
        {
          "name": "dna",
          "type": "uint256"
        }
      ],
      "payable": false,
      "stateMutability": "view",
      "type": "function"
    },
    {
      "constant": false,
      "inputs": [
        {
          "name": "_name",
          "type": "string"
        },
        {
          "name": "_owner",
          "type": "address"
        }
      ],
      "name": "createRandomGuy",
      "outputs": [
        {
          "name": "",
          "type": "uint256"
        }
      ],
      "payable": false,
      "stateMutability": "nonpayable",
      "type": "function"
    }
  ],
  "bytecode": "0x60806040526010600155662386f26fc10000600255610e1060035560008054600160a060020a03191633179055610a9b8061003b6000396000f3006080604052600436106100985763ffffffff7c010000000000000000000000000000000000000000000000000000000060003504166301e31dda811461009d57806318160ddd1461011b578063428da5c3146101425780635364ed67146101fb57806370a082311461029257806384666e9d146102c05780638da5cb5b146103315780638e4b66041461036f578063f2fde38b14610387575b600080fd5b3480156100a957600080fd5b506100cb73ffffffffffffffffffffffffffffffffffffffff600435166103b7565b60408051602080825283518183015283519192839290830191858101910280838360005b838110156101075781810151838201526020016100ef565b505050509050019250505060405180910390f35b34801561012757600080fd5b50610130610496565b60408051918252519081900360200190f35b34801561014e57600080fd5b5061015a60043561049d565b60408051602080820187905263ffffffff808716938301939093528483166060830152918316608082015260a080825287519082015286519091829160c083019189019080838360005b838110156101bc5781810151838201526020016101a4565b50505050905090810190601f1680156101e95780820380516001836020036101000a031916815260200191505b50965050505050505060405180910390f35b34801561020757600080fd5b5061021360043561057b565b6040518080602001838152602001828103825284818151815260200191508051906020019080838360005b8381101561025657818101518382015260200161023e565b50505050905090810190601f1680156102835780820380516001836020036101000a031916815260200191505b50935050505060405180910390f35b34801561029e57600080fd5b5061013073ffffffffffffffffffffffffffffffffffffffff60043516610665565b3480156102cc57600080fd5b506040805160206004803580820135601f81018490048402850184019095528484526101309436949293602493928401919081908401838280828437509497505050923573ffffffffffffffffffffffffffffffffffffffff16935061068d92505050565b34801561033d57600080fd5b506103466106b7565b6040805173ffffffffffffffffffffffffffffffffffffffff9092168252519081900360200190f35b34801561037b57600080fd5b506103466004356106d3565b34801561039357600080fd5b506103b573ffffffffffffffffffffffffffffffffffffffff600435166106fb565b005b60606000606060008060006103cb87610665565b94508415156103ea57604080516000815260208101909152955061048c565b84604051908082528060200260200182016040528015610414578160200160208202803883390190505b50935061041f610496565b925060009150600190505b8281116104885760008181526005602052604090205473ffffffffffffffffffffffffffffffffffffffff888116911614156104805780848381518110151561046f57fe5b602090810290910101526001909101905b60010161042a565b8395505b5050505050919050565b6004545b90565b60048054829081106104ab57fe5b60009182526020918290206003919091020180546040805160026001841615610100026000190190931692909204601f8101859004850283018501909152808252919350918391908301828280156105445780601f1061051957610100808354040283529160200191610544565b820191906000526020600020905b81548152906001019060200180831161052757829003601f168201915b50505050600183015460029093015491929163ffffffff808216925064010000000082048116916801000000000000000090041685565b6060600060048381548110151561058e57fe5b90600052602060002090600302016000016004848154811015156105ae57fe5b906000526020600020906003020160010154818054600181600116156101000203166002900480601f0160208091040260200160405190810160405280929190818152602001828054600181600116156101000203166002900480156106555780601f1061062a57610100808354040283529160200191610655565b820191906000526020600020905b81548152906001019060200180831161063857829003601f168201915b5050505050915091509150915091565b73ffffffffffffffffffffffffffffffffffffffff1660009081526006602052604090205490565b600080600061069b856107c3565b60648106900391506106ae85838661083e565b95945050505050565b60005473ffffffffffffffffffffffffffffffffffffffff1681565b60056020526000908152604090205473ffffffffffffffffffffffffffffffffffffffff1681565b60005473ffffffffffffffffffffffffffffffffffffffff16331461071f57600080fd5b73ffffffffffffffffffffffffffffffffffffffff8116151561074157600080fd5b6000805460405173ffffffffffffffffffffffffffffffffffffffff808516939216917f8be0079c531659141344cd1fd0a4f28419497f9722a3daafe3b4186f6b6457e091a36000805473ffffffffffffffffffffffffffffffffffffffff191673ffffffffffffffffffffffffffffffffffffffff92909216919091179055565b600080826040518082805190602001908083835b602083106107f65780518252601f1990920191602091820191016107d7565b6001836020036101000a03801982511681845116808217855250505050505090500191505060405180910390206001900490506002548181151561083657fe5b069392505050565b60006108486109a9565b506040805160a081018252858152602080820186905260019282018390526000606083018190526080830181905260048054808601808355918352845180519596939593949293879360039093027f8a35acfbc15ff81a39ae7d344fd709f28e8600b4aa8c65c6b64bfe7fe36bd19b01926108c79284929101906109d7565b5060208281015160018381019190915560408085015160029094018054606087015160809097015163ffffffff1990911663ffffffff9687161767ffffffff00000000191664010000000097871697909702969096176bffffffff000000000000000019166801000000000000000095909616949094029490941790925593909203600081815260058552828120805473ffffffffffffffffffffffffffffffffffffffff191673ffffffffffffffffffffffffffffffffffffffff9a909a16998a179055978852600690935290952080549095019094555091949350505050565b6040805160a08101825260608082526000602083018190529282018390528101829052608081019190915290565b828054600181600116156101000203166002900490600052602060002090601f016020900481019282601f10610a1857805160ff1916838001178555610a45565b82800160010185558215610a45579182015b82811115610a45578251825591602001919060010190610a2a565b50610a51929150610a55565b5090565b61049a91905b80821115610a515760008155600101610a5b5600a165627a7a723058204e07bc23a6df66affef29a5b3a4a6852f10878259636fb2ec7dd19af3d7eba300029",
  "source": "pragma solidity ^0.4.4;\r\n\r\nimport \"openzeppelin-solidity/contracts/ownership/Ownable.sol\";\r\nimport \"openzeppelin-solidity/contracts/Math/SafeMath.sol\";\r\n\r\ncontract GuyFactory is Ownable{\r\n    // Imports\r\n    using SafeMath for uint256;\r\n    // Events\r\n    event NewGuy(uint guyId, string name, uint dna);\r\n    \r\n    // Structs\r\n    struct Guy {\r\n        string name;\r\n        uint dna;\r\n        uint32 level;\r\n        uint32 wins;\r\n        uint32 losses;\r\n    }\r\n\r\n    // -- Storage --\r\n    // Consts\r\n    uint DNA_DIGITS = 16;\r\n    uint DNA_MODULUS = 10 ** DNA_DIGITS;\r\n    uint COOLDOWN_TIME = 60 minutes;\r\n    // Total guys array\r\n    Guy[] public guys;\r\n    // Maps\r\n    mapping (uint256 => address) public guyIndexToOwner;\r\n    mapping (address => uint256) ownershipCount;\r\n    \r\n    //@dev function for creating a new \"guy\"\r\n    function createGuy(string _name, uint _dna, address owner) internal returns(uint256) {\r\n        Guy memory _guy = Guy({\r\n            name: _name,\r\n            dna: _dna,\r\n            level: 1,\r\n            wins: 0,\r\n            losses: 0\r\n        });\r\n\r\n        uint256 newGuyId = guys.push(_guy) - 1;\r\n        guyIndexToOwner[newGuyId] = owner;\r\n        ownershipCount[owner]++;\r\n\r\n        return newGuyId;\r\n        // emit NewGuy(id, _name, _dna);\r\n    }\r\n\r\n    //@dev returns the total supply\r\n    function totalSupply() public view returns (uint) {\r\n        return guys.length;\r\n    }\r\n\r\n    //@dev returns balance for a specific account\r\n    function balanceOf(address _owner) public view returns (uint256) {\r\n        return ownershipCount[_owner];\r\n    }\r\n\r\n    //@dev returns the tokens for an account\r\n    function guysFor(address _owner) external view returns (uint256[] ids) {\r\n        uint256 guyCount = balanceOf(_owner);\r\n\r\n        if (guyCount == 0) {\r\n            // Return an empty array\r\n            return new uint256[](0);\r\n        }\r\n\r\n        uint256[] memory result = new uint256[](guyCount);\r\n        uint256 totalGuys = totalSupply();\r\n        uint256 resultIndex = 0;\r\n        uint256 guyId;\r\n        for (guyId = 1; guyId <= totalGuys; guyId++) {\r\n            if (guyIndexToOwner[guyId] == _owner) {\r\n                result[resultIndex] = guyId;\r\n                resultIndex++;\r\n            }\r\n        }\r\n\r\n        return result;\r\n    }\r\n\r\n    //@dev returns the data for a specific token\r\n    function getGuy(uint256 _id) public view returns (string name, uint dna) {\r\n        return (guys[_id].name, guys[_id].dna);\r\n    }\r\n\r\n    function generateRandomDna(string _str) private view returns (uint) {\r\n        uint rand = uint(keccak256(_str));\r\n        return rand % DNA_MODULUS;\r\n    }\r\n\r\n    function createRandomGuy(string _name, address _owner) public returns(uint256) {\r\n        // require(ownershipCount[_owner] <= 2);\r\n        uint randDna = generateRandomDna(_name);\r\n        randDna = randDna - randDna % 100;\r\n        uint256 id = createGuy(_name, randDna, _owner);\r\n        return id;\r\n    }\r\n \r\n}\r\n  ",
  "sourcePath": "/Users/Zac/Documents/Code/GitHub/Web/cryptoguys/contracts/GuyFactory.sol",
  "compiler": {
    "name": "solc",
    "version": "0.4.24+commit.e67f0147.Emscripten.clang"
  },
  "schemaVersion": "2.0.0",
  "updatedAt": "2018-05-25T01:30:29.231Z"
}